{
  "contractName": "Courses",
  "abi": [
    {
      "constant": true,
      "inputs": [
        {
          "name": "",
          "type": "uint256"
        }
      ],
      "name": "instructorAccts",
      "outputs": [
        {
          "name": "",
          "type": "address"
        }
      ],
      "payable": false,
      "stateMutability": "view",
      "type": "function"
    },
    {
      "constant": false,
      "inputs": [
        {
          "name": "_address",
          "type": "address"
        },
        {
          "name": "_age",
          "type": "uint256"
        },
        {
          "name": "_fName",
          "type": "string"
        },
        {
          "name": "_lName",
          "type": "string"
        }
      ],
      "name": "setInstructor",
      "outputs": [],
      "payable": false,
      "stateMutability": "nonpayable",
      "type": "function"
    },
    {
      "constant": true,
      "inputs": [],
      "name": "getInstructors",
      "outputs": [
        {
          "name": "",
          "type": "address[]"
        }
      ],
      "payable": false,
      "stateMutability": "view",
      "type": "function"
    },
    {
      "constant": true,
      "inputs": [
        {
          "name": "_address",
          "type": "address"
        }
      ],
      "name": "getInstructor",
      "outputs": [
        {
          "name": "",
          "type": "uint256"
        },
        {
          "name": "",
          "type": "string"
        },
        {
          "name": "",
          "type": "string"
        }
      ],
      "payable": false,
      "stateMutability": "view",
      "type": "function"
    },
    {
      "constant": true,
      "inputs": [],
      "name": "countInstructors",
      "outputs": [
        {
          "name": "",
          "type": "uint256"
        }
      ],
      "payable": false,
      "stateMutability": "view",
      "type": "function"
    }
  ],
  "bytecode": "0x608060405234801561001057600080fd5b506108ec806100206000396000f3fe60806040526004361061006d576000357c0100000000000000000000000000000000000000000000000000000000900463ffffffff1680630429e3721461007257806346428adc146101af5780635eff7dae146103385780638eb5234c146103a4578063ca8ab9331461041f575b600080fd5b34801561007e57600080fd5b506100c16004803603602081101561009557600080fd5b81019080803573ffffffffffffffffffffffffffffffffffffffff16906020019092919050505061044a565b604051808481526020018060200180602001838103835285818151815260200191508051906020019080838360005b8381101561010b5780820151818401526020810190506100f0565b50505050905090810190601f1680156101385780820380516001836020036101000a031916815260200191505b50838103825284818151815260200191508051906020019080838360005b83811015610171578082015181840152602081019050610156565b50505050905090810190601f16801561019e5780820380516001836020036101000a031916815260200191505b509550505050505060405180910390f35b3480156101bb57600080fd5b50610336600480360360808110156101d257600080fd5b81019080803573ffffffffffffffffffffffffffffffffffffffff169060200190929190803590602001909291908035906020019064010000000081111561021957600080fd5b82018360208201111561022b57600080fd5b8035906020019184600183028401116401000000008311171561024d57600080fd5b91908080601f016020809104026020016040519081016040528093929190818152602001838380828437600081840152601f19601f820116905080830192505050505050509192919290803590602001906401000000008111156102b057600080fd5b8201836020820111156102c257600080fd5b803590602001918460018302840111640100000000831117156102e457600080fd5b91908080601f016020809104026020016040519081016040528093929190818152602001838380828437600081840152601f19601f820116905080830192505050505050509192919290505050610658565b005b34801561034457600080fd5b5061034d610742565b6040518080602001828103825283818151815260200191508051906020019060200280838360005b83811015610390578082015181840152602081019050610375565b505050509050019250505060405180910390f35b3480156103b057600080fd5b506103dd600480360360208110156103c757600080fd5b81019080803590602001909291905050506107d0565b604051808273ffffffffffffffffffffffffffffffffffffffff1673ffffffffffffffffffffffffffffffffffffffff16815260200191505060405180910390f35b34801561042b57600080fd5b5061043461080e565b6040518082815260200191505060405180910390f35b60006060806000808573ffffffffffffffffffffffffffffffffffffffff1673ffffffffffffffffffffffffffffffffffffffff168152602001908152602001600020600001546000808673ffffffffffffffffffffffffffffffffffffffff1673ffffffffffffffffffffffffffffffffffffffff1681526020019081526020016000206001016000808773ffffffffffffffffffffffffffffffffffffffff1673ffffffffffffffffffffffffffffffffffffffff168152602001908152602001600020600201818054600181600116156101000203166002900480601f0160208091040260200160405190810160405280929190818152602001828054600181600116156101000203166002900480156105a85780601f1061057d576101008083540402835291602001916105a8565b820191906000526020600020905b81548152906001019060200180831161058b57829003601f168201915b50505050509150808054600181600116156101000203166002900480601f0160208091040260200160405190810160405280929190818152602001828054600181600116156101000203166002900480156106445780601f1061061957610100808354040283529160200191610644565b820191906000526020600020905b81548152906001019060200180831161062757829003601f168201915b505050505090509250925092509193909250565b60008060008673ffffffffffffffffffffffffffffffffffffffff1673ffffffffffffffffffffffffffffffffffffffff1681526020019081526020016000209050838160000181905550828160010190805190602001906106bb92919061081b565b50818160020190805190602001906106d492919061081b565b5060018590806001815401808255809150509060018203906000526020600020016000909192909190916101000a81548173ffffffffffffffffffffffffffffffffffffffff021916908373ffffffffffffffffffffffffffffffffffffffff160217905550505050505050565b606060018054806020026020016040519081016040528092919081815260200182805480156107c657602002820191906000526020600020905b8160009054906101000a900473ffffffffffffffffffffffffffffffffffffffff1673ffffffffffffffffffffffffffffffffffffffff168152602001906001019080831161077c575b5050505050905090565b6001818154811015156107df57fe5b906000526020600020016000915054906101000a900473ffffffffffffffffffffffffffffffffffffffff1681565b6000600180549050905090565b828054600181600116156101000203166002900490600052602060002090601f016020900481019282601f1061085c57805160ff191683800117855561088a565b8280016001018555821561088a579182015b8281111561088957825182559160200191906001019061086e565b5b509050610897919061089b565b5090565b6108bd91905b808211156108b95760008160009055506001016108a1565b5090565b9056fea165627a7a7230582093ee87d8434ce29883ba018d244a7c965f6dba3d8daf1e1931a6f0b1a9a9df0f0029",
  "source": "pragma solidity ^0.5.0;\r\n\r\ncontract Courses {\r\n    \r\n    struct Instructor {\r\n        uint age;\r\n        string fName;\r\n        string lName;\r\n    }\r\n    \r\n    mapping (address => Instructor) instructors;\r\n    address[] public instructorAccts;\r\n    \r\n    function setInstructor(\r\n        address _address, uint _age, string memory _fName, string memory _lName) public {\r\n        Courses.Instructor storage instructor = instructors[_address];\r\n        \r\n        instructor.age = _age;\r\n        instructor.fName = _fName;\r\n        instructor.lName = _lName;\r\n        \r\n        instructorAccts.push(_address);\r\n    }\r\n    \r\n    function getInstructors() view public returns(address[] memory) {\r\n        return instructorAccts;\r\n    }\r\n    \r\n    function getInstructor(address _address) view public returns (uint, string memory, string memory) {\r\n        return (instructors[_address].age, instructors[_address].fName, instructors[_address].lName);\r\n    }\r\n    \r\n    function countInstructors() view public returns (uint) {\r\n        return instructorAccts.length;\r\n    }\r\n}",
  "sourcePath": "C:/dev/source/blockchain/hw4-mapping-and-struct/contracts/Courses.sol",
  "compiler": {
    "name": "solc",
    "version": "0.5.0+commit.1d4f565a.Emscripten.clang"
  },
  "schemaVersion": "3.0.6",
  "updatedAt": "2019-04-13T19:28:49.112Z",
  "devdoc": {
    "methods": {}
  },
  "userdoc": {
    "methods": {}
  }
}